{
    "contractName": "PistasDePadelCliente",
    "abi": [
        {
            "anonymous": false,
            "inputs": [
                {
                    "indexed": true,
                    "internalType": "bytes32",
                    "name": "role",
                    "type": "bytes32"
                },
                {
                    "indexed": true,
                    "internalType": "bytes32",
                    "name": "previousAdminRole",
                    "type": "bytes32"
                },
                {
                    "indexed": true,
                    "internalType": "bytes32",
                    "name": "newAdminRole",
                    "type": "bytes32"
                }
            ],
            "name": "RoleAdminChanged",
            "type": "event"
        },
        {
            "anonymous": false,
            "inputs": [
                {
                    "indexed": true,
                    "internalType": "bytes32",
                    "name": "role",
                    "type": "bytes32"
                },
                {
                    "indexed": true,
                    "internalType": "address",
                    "name": "account",
                    "type": "address"
                },
                {
                    "indexed": true,
                    "internalType": "address",
                    "name": "sender",
                    "type": "address"
                }
            ],
            "name": "RoleGranted",
            "type": "event"
        },
        {
            "anonymous": false,
            "inputs": [
                {
                    "indexed": true,
                    "internalType": "bytes32",
                    "name": "role",
                    "type": "bytes32"
                },
                {
                    "indexed": true,
                    "internalType": "address",
                    "name": "account",
                    "type": "address"
                },
                {
                    "indexed": true,
                    "internalType": "address",
                    "name": "sender",
                    "type": "address"
                }
            ],
            "name": "RoleRevoked",
            "type": "event"
        },
        {
            "inputs": [],
            "name": "DEFAULT_ADMIN_ROLE",
            "outputs": [
                {
                    "internalType": "bytes32",
                    "name": "",
                    "type": "bytes32"
                }
            ],
            "stateMutability": "view",
            "type": "function"
        },
        {
            "inputs": [],
            "name": "GESTOR_PISTAS_ROLE",
            "outputs": [
                {
                    "internalType": "bytes32",
                    "name": "",
                    "type": "bytes32"
                }
            ],
            "stateMutability": "view",
            "type": "function"
        },
        {
            "inputs": [],
            "name": "PrecioXMinuto",
            "outputs": [
                {
                    "internalType": "uint256",
                    "name": "",
                    "type": "uint256"
                }
            ],
            "stateMutability": "view",
            "type": "function"
        },
        {
            "inputs": [],
            "name": "TiempoExtra",
            "outputs": [
                {
                    "internalType": "uint256",
                    "name": "",
                    "type": "uint256"
                }
            ],
            "stateMutability": "view",
            "type": "function"
        },
        {
            "inputs": [
                {
                    "internalType": "string",
                    "name": "_nombre",
                    "type": "string"
                }
            ],
            "name": "crearPista",
            "outputs": [
                {
                    "internalType": "uint256",
                    "name": "",
                    "type": "uint256"
                }
            ],
            "stateMutability": "nonpayable",
            "type": "function"
        },
        {
            "inputs": [],
            "name": "getGanancias",
            "outputs": [
                {
                    "internalType": "uint256",
                    "name": "",
                    "type": "uint256"
                }
            ],
            "stateMutability": "view",
            "type": "function"
        },
        {
            "inputs": [
                {
                    "internalType": "bytes32",
                    "name": "role",
                    "type": "bytes32"
                }
            ],
            "name": "getRoleAdmin",
            "outputs": [
                {
                    "internalType": "bytes32",
                    "name": "",
                    "type": "bytes32"
                }
            ],
            "stateMutability": "view",
            "type": "function"
        },
        {
            "inputs": [
                {
                    "internalType": "bytes32",
                    "name": "role",
                    "type": "bytes32"
                },
                {
                    "internalType": "uint256",
                    "name": "index",
                    "type": "uint256"
                }
            ],
            "name": "getRoleMember",
            "outputs": [
                {
                    "internalType": "address",
                    "name": "",
                    "type": "address"
                }
            ],
            "stateMutability": "view",
            "type": "function"
        },
        {
            "inputs": [
                {
                    "internalType": "bytes32",
                    "name": "role",
                    "type": "bytes32"
                }
            ],
            "name": "getRoleMemberCount",
            "outputs": [
                {
                    "internalType": "uint256",
                    "name": "",
                    "type": "uint256"
                }
            ],
            "stateMutability": "view",
            "type": "function"
        },
        {
            "inputs": [
                {
                    "internalType": "bytes32",
                    "name": "role",
                    "type": "bytes32"
                },
                {
                    "internalType": "address",
                    "name": "account",
                    "type": "address"
                }
            ],
            "name": "grantRole",
            "outputs": [],
            "stateMutability": "nonpayable",
            "type": "function"
        },
        {
            "inputs": [
                {
                    "internalType": "bytes32",
                    "name": "role",
                    "type": "bytes32"
                },
                {
                    "internalType": "address",
                    "name": "account",
                    "type": "address"
                }
            ],
            "name": "hasRole",
            "outputs": [
                {
                    "internalType": "bool",
                    "name": "",
                    "type": "bool"
                }
            ],
            "stateMutability": "view",
            "type": "function"
        },
        {
            "inputs": [],
            "name": "numeroPistas",
            "outputs": [
                {
                    "internalType": "uint256",
                    "name": "",
                    "type": "uint256"
                }
            ],
            "stateMutability": "view",
            "type": "function"
        },
        {
            "inputs": [
                {
                    "internalType": "uint256",
                    "name": "",
                    "type": "uint256"
                }
            ],
            "name": "pistas",
            "outputs": [
                {
                    "internalType": "string",
                    "name": "nombre",
                    "type": "string"
                },
                {
                    "internalType": "uint256",
                    "name": "plazoEncendido",
                    "type": "uint256"
                },
                {
                    "internalType": "enum PistasDePadelGestion.Estado",
                    "name": "estado",
                    "type": "uint8"
                }
            ],
            "stateMutability": "view",
            "type": "function"
        },
        {
            "inputs": [
                {
                    "internalType": "bytes32",
                    "name": "role",
                    "type": "bytes32"
                },
                {
                    "internalType": "address",
                    "name": "account",
                    "type": "address"
                }
            ],
            "name": "renounceRole",
            "outputs": [],
            "stateMutability": "nonpayable",
            "type": "function"
        },
        {
            "inputs": [
                {
                    "internalType": "uint256",
                    "name": "idPista",
                    "type": "uint256"
                },
                {
                    "internalType": "uint256",
                    "name": "minutos",
                    "type": "uint256"
                }
            ],
            "name": "reservar",
            "outputs": [],
            "stateMutability": "payable",
            "type": "function"
        },
        {
            "inputs": [
                {
                    "internalType": "uint256[]",
                    "name": "_idReset",
                    "type": "uint256[]"
                }
            ],
            "name": "resetearPlazos",
            "outputs": [],
            "stateMutability": "nonpayable",
            "type": "function"
        },
        {
            "inputs": [],
            "name": "retirarGanancias",
            "outputs": [
                {
                    "internalType": "bool",
                    "name": "",
                    "type": "bool"
                }
            ],
            "stateMutability": "payable",
            "type": "function"
        },
        {
            "inputs": [
                {
                    "internalType": "bytes32",
                    "name": "role",
                    "type": "bytes32"
                },
                {
                    "internalType": "address",
                    "name": "account",
                    "type": "address"
                }
            ],
            "name": "revokeRole",
            "outputs": [],
            "stateMutability": "nonpayable",
            "type": "function"
        },
        {
            "inputs": [
                {
                    "internalType": "uint256",
                    "name": "idPista",
                    "type": "uint256"
                }
            ],
            "name": "setPistaApagado",
            "outputs": [],
            "stateMutability": "nonpayable",
            "type": "function"
        },
        {
            "inputs": [
                {
                    "internalType": "uint256",
                    "name": "idPista",
                    "type": "uint256"
                }
            ],
            "name": "setPistaEncendido",
            "outputs": [],
            "stateMutability": "nonpayable",
            "type": "function"
        },
        {
            "inputs": [
                {
                    "internalType": "uint256",
                    "name": "idPista",
                    "type": "uint256"
                }
            ],
            "name": "setPistaFuncionamiento",
            "outputs": [],
            "stateMutability": "nonpayable",
            "type": "function"
        },
        {
            "inputs": [
                {
                    "internalType": "uint256",
                    "name": "_precio",
                    "type": "uint256"
                }
            ],
            "name": "setPrecioXMinuto",
            "outputs": [],
            "stateMutability": "nonpayable",
            "type": "function"
        },
        {
            "inputs": [
                {
                    "internalType": "uint256",
                    "name": "segundos",
                    "type": "uint256"
                }
            ],
            "name": "setTiempoExtra",
            "outputs": [],
            "stateMutability": "nonpayable",
            "type": "function"
        }
    ],
    "bytecode": "6080604052670de0b6b3a7640000600255603c60035560006004553480156200002757600080fd5b506200003560003362000067565b620000617f687797022fb88d524c9d386b0ec1c01a0799fff1f1f8403113dffa17f4bf6ab23362000067565b6200017b565b62000073828262000077565b5050565b6000828152602081815260409091206200009c91839062000f12620000f0821b17901c565b156200007357620000ac62000110565b6001600160a01b0316816001600160a01b0316837f2f8788117e7eff1d82e926ec794901d17c78024a50270940304540a733656f0d60405160405180910390a45050565b600062000107836001600160a01b03841662000114565b90505b92915050565b3390565b600062000122838362000163565b6200015a575081546001818101845560008481526020808220909301849055845484825282860190935260409020919091556200010a565b5060006200010a565b60009081526001919091016020526040902054151590565b611721806200018b6000396000f3fe6080604052600436106101405760003560e01c8063a217fddf116100b6578063ca15c8731161006f578063ca15c873146104d0578063cdab54d2146104fa578063d2b7727614610524578063d547741f14610539578063da27d99714610572578063e58a2a551461062d57610140565b8063a217fddf146103cd578063a4ba0008146103e2578063a4c57a301461040c578063a6efda4c14610421578063b212c51c1461044b578063c4f03dfa1461045357610140565b8063748a861411610108578063748a8614146102d2578063772b2e86146102e75780638862bace146102fc5780639010d07c1461031f57806391d148541461036b5780639fb38a5d146103b857610140565b80630a5d518c1461014557806315a16c801461020a578063248a9ca3146102365780632f2ff15d1461026057806336568abe14610299575b600080fd5b34801561015157600080fd5b506101f86004803603602081101561016857600080fd5b81019060208101813564010000000081111561018357600080fd5b82018360208201111561019557600080fd5b803590602001918460018302840111640100000000831117156101b757600080fd5b91908080601f016020809104026020016040519081016040528093929190818152602001838380828437600092019190915250929550610657945050505050565b60408051918252519081900360200190f35b34801561021657600080fd5b506102346004803603602081101561022d57600080fd5b503561072d565b005b34801561024257600080fd5b506101f86004803603602081101561025957600080fd5b5035610855565b34801561026c57600080fd5b506102346004803603604081101561028357600080fd5b50803590602001356001600160a01b031661086a565b3480156102a557600080fd5b50610234600480360360408110156102bc57600080fd5b50803590602001356001600160a01b03166108d6565b3480156102de57600080fd5b506101f8610937565b3480156102f357600080fd5b506101f8610949565b6102346004803603604081101561031257600080fd5b508035906020013561094f565b34801561032b57600080fd5b5061034f6004803603604081101561034257600080fd5b5080359060200135610a11565b604080516001600160a01b039092168252519081900360200190f35b34801561037757600080fd5b506103a46004803603604081101561038e57600080fd5b50803590602001356001600160a01b0316610a32565b604080519115158252519081900360200190f35b3480156103c457600080fd5b506101f8610a4a565b3480156103d957600080fd5b506101f8610a51565b3480156103ee57600080fd5b506102346004803603602081101561040557600080fd5b5035610a56565b34801561041857600080fd5b506101f8610b4a565b34801561042d57600080fd5b506102346004803603602081101561044457600080fd5b5035610b74565b6103a4610b9a565b34801561045f57600080fd5b506102346004803603602081101561047657600080fd5b81019060208101813564010000000081111561049157600080fd5b8201836020820111156104a357600080fd5b803590602001918460208302840111640100000000831117156104c557600080fd5b509092509050610c15565b3480156104dc57600080fd5b506101f8600480360360208110156104f357600080fd5b5035610c85565b34801561050657600080fd5b506102346004803603602081101561051d57600080fd5b5035610c9c565b34801561053057600080fd5b506101f8610d78565b34801561054557600080fd5b506102346004803603604081101561055c57600080fd5b50803590602001356001600160a01b0316610d7e565b34801561057e57600080fd5b5061059c6004803603602081101561059557600080fd5b5035610dd7565b60405180806020018481526020018360028111156105b657fe5b8152602001828103825285818151815260200191508051906020019080838360005b838110156105f05781810151838201526020016105d8565b50505050905090810190601f16801561061d5780820380516001836020036101000a031916815260200191505b5094505050505060405180910390f35b34801561063957600080fd5b506102346004803603602081101561065057600080fd5b5035610e97565b60006106716000805160206114a483398151915233610a32565b61067a57600080fd5b610682611347565b60408051606081018252848152600060208201529081016001905260018054808201825560009190915281518051929350909183917fb10e2d527612073b26eecdfd717e6a320cf44b4afac2b0732d9fcbe2b7fa0cf66003850201916106ef918391602090910190611372565b506020820151816001015560408201518160020160006101000a81548160ff0219169083600281111561071e57fe5b02179055509195945050505050565b6107456000805160206114a483398151915233610a32565b61074e57600080fd5b600154811061078e5760405162461bcd60e51b815260040180806020018281038252602e81526020018061161e602e913960400191505060405180910390fd5b60006001828154811061079d57fe5b60009182526020909120600260039092020181015460ff16908111156107bf57fe5b1415610812576040805162461bcd60e51b815260206004820152601a60248201527f4c6120706973746120796120657374c3a120617061676164612e000000000000604482015290519081900360640190fd5b60006001828154811061082157fe5b906000526020600020906003020160020160006101000a81548160ff0219169083600281111561084d57fe5b021790555050565b60009081526020819052604090206002015490565b60008281526020819052604090206002015461088d90610888610f27565b610a32565b6108c85760405162461bcd60e51b815260040180806020018281038252602f815260200180611428602f913960400191505060405180910390fd5b6108d28282610f2b565b5050565b6108de610f27565b6001600160a01b0316816001600160a01b03161461092d5760405162461bcd60e51b815260040180806020018281038252602f8152602001806116bd602f913960400191505060405180910390fd5b6108d28282610f94565b6000805160206114a483398151915281565b60035481565b6001548290811061095f57600080fd5b600180828154811061096d57fe5b60009182526020909120600260039092020181015460ff169081111561098f57fe5b146109cb5760405162461bcd60e51b815260040180806020018281038252604b8152602001806115a5604b913960600191505060405180910390fd5b60035442603c840201016109e184348584610ffd565b80600185815481106109ef57fe5b6000918252602090912060016003909202010155505060048054340190555050565b6000828152602081905260408120610a299083611176565b90505b92915050565b6000828152602081905260408120610a299083611182565b6001545b90565b600081565b610a6e6000805160206114a483398151915233610a32565b610a7757600080fd5b6001548110610ab75760405162461bcd60e51b815260040180806020018281038252602e81526020018061161e602e913960400191505060405180910390fd5b600260018281548110610ac657fe5b60009182526020909120600260039092020181015460ff1690811115610ae857fe5b1415610b3b576040805162461bcd60e51b815260206004820152601c60248201527f4c6120706973746120796120657374c3a120656e63656e646964612e00000000604482015290519081900360640190fd5b60026001828154811061082157fe5b6000610b646000805160206114a483398151915233610a32565b610b6d57600080fd5b5060045490565b610b8c6000805160206114a483398151915233610a32565b610b9557600080fd5b600355565b6000610ba68133610a32565b610be15760405162461bcd60e51b815260040180806020018281038252604381526020018061164c6043913960600191505060405180910390fd5b600454604051339180156108fc02916000818181858888f19350505050610c0a57506000610a4e565b506000600455600190565b610c2d6000805160206114a483398151915233610a32565b610c3657600080fd5b60005b81811015610c805760006001848484818110610c5157fe5b9050602002013581548110610c6257fe5b60009182526020909120600160039092020181019190915501610c39565b505050565b6000818152602081905260408120610a2c90611197565b610cb46000805160206114a483398151915233610a32565b610cbd57600080fd5b6001548110610cfd5760405162461bcd60e51b815260040180806020018281038252602e81526020018061161e602e913960400191505060405180910390fd5b6001808281548110610d0b57fe5b60009182526020909120600260039092020181015460ff1690811115610d2d57fe5b1415610d6a5760405162461bcd60e51b81526004018080602001828103825260248152602001806114c46024913960400191505060405180910390fd5b600180828154811061082157fe5b60025481565b600082815260208190526040902060020154610d9c90610888610f27565b61092d5760405162461bcd60e51b81526004018080602001828103825260308152602001806114e86030913960400191505060405180910390fd5b60018181548110610de457fe5b60009182526020918290206003919091020180546040805160026001841615610100026000190190931692909204601f810185900485028301850190915280825291935091839190830182828015610e7d5780601f10610e5257610100808354040283529160200191610e7d565b820191906000526020600020905b815481529060010190602001808311610e6057829003601f168201915b50505050600183015460029093015491929160ff16905083565b610eaf6000805160206114a483398151915233610a32565b610eb857600080fd5b60008111610f0d576040805162461bcd60e51b815260206004820152601e60248201527f456c2070726563696f206573206d656e6f72206f20696775616c206120300000604482015290519081900360640190fd5b600255565b6000610a29836001600160a01b0384166111a2565b3390565b6000828152602081905260409020610f439082610f12565b156108d257610f50610f27565b6001600160a01b0316816001600160a01b0316837f2f8788117e7eff1d82e926ec794901d17c78024a50270940304540a733656f0d60405160405180910390a45050565b6000828152602081905260409020610fac90826111ec565b156108d257610fb9610f27565b6001600160a01b0316816001600160a01b0316837ff6391f5c32d9c69d2a47ea670b442974b53935d1edc7fd64eb21e047a839171b60405160405180910390a45050565b6000831161103c5760405162461bcd60e51b815260040180806020018281038252602e81526020018061168f602e913960400191505060405180910390fd5b6004548381011161107e5760405162461bcd60e51b815260040180806020018281038252608d815260200180611518608d913960a00191505060405180910390fd5b600254820283146110c05760405162461bcd60e51b815260040180806020018281038252602e8152602001806115f0602e913960400191505060405180910390fd5b42600185815481106110ce57fe5b90600052602060002090600302016001015410611132576040805162461bcd60e51b815260206004820152601d60248201527f4c6120706973746120796120657374c3a120736f6c696369746164612e000000604482015290519081900360640190fd5b4281116111705760405162461bcd60e51b815260040180806020018281038252604d815260200180611457604d913960600191505060405180910390fd5b50505050565b6000610a298383611201565b6000610a29836001600160a01b038416611265565b6000610a2c8261127d565b60006111ae8383611265565b6111e457508154600181810184556000848152602080822090930184905584548482528286019093526040902091909155610a2c565b506000610a2c565b6000610a29836001600160a01b038416611281565b815460009082106112435760405162461bcd60e51b81526004018080602001828103825260228152602001806114066022913960400191505060405180910390fd5b82600001828154811061125257fe5b9060005260206000200154905092915050565b60009081526001919091016020526040902054151590565b5490565b6000818152600183016020526040812054801561133d57835460001980830191908101906000908790839081106112b457fe5b90600052602060002001549050808760000184815481106112d157fe5b60009182526020808320909101929092558281526001898101909252604090209084019055865487908061130157fe5b60019003818190600052602060002001600090559055866001016000878152602001908152602001600020600090556001945050505050610a2c565b6000915050610a2c565b604051806060016040528060608152602001600081526020016000600281111561136d57fe5b905290565b828054600181600116156101000203166002900490600052602060002090601f016020900481019282601f106113b357805160ff19168380011785556113e0565b828001600101855582156113e0579182015b828111156113e05782518255916020019190600101906113c5565b506113ec9291506113f0565b5090565b5b808211156113ec57600081556001016113f156fe456e756d657261626c655365743a20696e646578206f7574206f6620626f756e6473416363657373436f6e74726f6c3a2073656e646572206d75737420626520616e2061646d696e20746f206772616e744572726f72206465206163617272656f20646520626974732c20656c206e7565766f20706c617a6f206e6f20657374c3a12063616c63756c616e646f736520636f7272656374616d656e74652e687797022fb88d524c9d386b0ec1c01a0799fff1f1f8403113dffa17f4bf6ab24c6120706973746120796120657374c3a120656e2066756e63696f6e616d69656e746f2e416363657373436f6e74726f6c3a2073656e646572206d75737420626520616e2061646d696e20746f207265766f6b654572726f72206465206163617272656f20646520626974733a204573206e656365736172696f2072657469726172206c612063616e7469646164206163756d756c6164612064652067616e616e636961732064656c20636f6e747261746f20616e74657320646520706f64657220636f6e74696e7561722068616369656e646f206f7065726163696f6e65732e4c61207069737461206e6f20736520656e6375656e74726120646973706f6e69626c65207061726120656c2075736f20616c20636c69656e746520656e2065737465206d6f6d656e746f2e4e6f20736520686120656e766961646f206c612063616e746964616420646520494f54582061646563756164612e4e6f20657869737465206964656e746966696361646f72206465206c61207069737461207265636c616d6164612e456c207573756172696f20717565206c6c616d612061206c612066756e6369c3b36e206e6f20706f736565206c6f73207065726d69736f73206e656365736172696f734e6f20736520686120696e74726f64756369646f206e696e67756e612063616e746964616420646520494f54582e416363657373436f6e74726f6c3a2063616e206f6e6c792072656e6f756e636520726f6c657320666f722073656c66a264697066735822122003c3247764aa8411d636223468421b353c0503a9cd6c9696d7d3b9aa1a03d0bc64736f6c634300060c0033",
    "sourcePath": "/home/lince098/Escritorio/TFG/rpi-script/Contracts/PistasDePadelCliente.sol",
    "compiler": {
        "name": "solc",
        "version": "0.6.12+commit.27d51765"
    },
    "functionHashes": {
        "DEFAULT_ADMIN_ROLE()": "a217fddf",
        "GESTOR_PISTAS_ROLE()": "748a8614",
        "PrecioXMinuto()": "d2b77276",
        "TiempoExtra()": "772b2e86",
        "crearPista(string)": "0a5d518c",
        "getGanancias()": "a4c57a30",
        "getRoleAdmin(bytes32)": "248a9ca3",
        "getRoleMember(bytes32,uint256)": "9010d07c",
        "getRoleMemberCount(bytes32)": "ca15c873",
        "grantRole(bytes32,address)": "2f2ff15d",
        "hasRole(bytes32,address)": "91d14854",
        "numeroPistas()": "9fb38a5d",
        "pistas(uint256)": "da27d997",
        "renounceRole(bytes32,address)": "36568abe",
        "reservar(uint256,uint256)": "8862bace",
        "resetearPlazos(uint256[])": "c4f03dfa",
        "retirarGanancias()": "b212c51c",
        "revokeRole(bytes32,address)": "d547741f",
        "setPistaApagado(uint256)": "15a16c80",
        "setPistaEncendido(uint256)": "a4ba0008",
        "setPistaFuncionamiento(uint256)": "cdab54d2",
        "setPrecioXMinuto(uint256)": "e58a2a55",
        "setTiempoExtra(uint256)": "a6efda4c"
    },
    "gasEstimates": {
        "creation": {
            "codeDepositCost": "1184200",
            "executionCost": "infinite",
            "totalCost": "infinite"
        },
        "external": {
            "DEFAULT_ADMIN_ROLE()": "221",
            "GESTOR_PISTAS_ROLE()": "infinite",
            "PrecioXMinuto()": "1064",
            "TiempoExtra()": "1043",
            "crearPista(string)": "infinite",
            "getGanancias()": "infinite",
            "getRoleAdmin(bytes32)": "1183",
            "getRoleMember(bytes32,uint256)": "infinite",
            "getRoleMemberCount(bytes32)": "infinite",
            "grantRole(bytes32,address)": "infinite",
            "hasRole(bytes32,address)": "infinite",
            "numeroPistas()": "1132",
            "pistas(uint256)": "infinite",
            "renounceRole(bytes32,address)": "infinite",
            "reservar(uint256,uint256)": "infinite",
            "resetearPlazos(uint256[])": "infinite",
            "retirarGanancias()": "infinite",
            "revokeRole(bytes32,address)": "infinite",
            "setPistaApagado(uint256)": "infinite",
            "setPistaEncendido(uint256)": "infinite",
            "setPistaFuncionamiento(uint256)": "infinite",
            "setPrecioXMinuto(uint256)": "infinite",
            "setTiempoExtra(uint256)": "infinite"
        },
        "internal": {
            "precondicionesReserva(uint256,uint256,uint256,uint256)": "infinite"
        }
    }
}