{
    "contractName": "PistasDePadelCliente",
    "abi": [
        {
            "anonymous": false,
            "inputs": [
                {
                    "indexed": true,
                    "internalType": "bytes32",
                    "name": "role",
                    "type": "bytes32"
                },
                {
                    "indexed": true,
                    "internalType": "bytes32",
                    "name": "previousAdminRole",
                    "type": "bytes32"
                },
                {
                    "indexed": true,
                    "internalType": "bytes32",
                    "name": "newAdminRole",
                    "type": "bytes32"
                }
            ],
            "name": "RoleAdminChanged",
            "type": "event"
        },
        {
            "anonymous": false,
            "inputs": [
                {
                    "indexed": true,
                    "internalType": "bytes32",
                    "name": "role",
                    "type": "bytes32"
                },
                {
                    "indexed": true,
                    "internalType": "address",
                    "name": "account",
                    "type": "address"
                },
                {
                    "indexed": true,
                    "internalType": "address",
                    "name": "sender",
                    "type": "address"
                }
            ],
            "name": "RoleGranted",
            "type": "event"
        },
        {
            "anonymous": false,
            "inputs": [
                {
                    "indexed": true,
                    "internalType": "bytes32",
                    "name": "role",
                    "type": "bytes32"
                },
                {
                    "indexed": true,
                    "internalType": "address",
                    "name": "account",
                    "type": "address"
                },
                {
                    "indexed": true,
                    "internalType": "address",
                    "name": "sender",
                    "type": "address"
                }
            ],
            "name": "RoleRevoked",
            "type": "event"
        },
        {
            "inputs": [],
            "name": "DEFAULT_ADMIN_ROLE",
            "outputs": [
                {
                    "internalType": "bytes32",
                    "name": "",
                    "type": "bytes32"
                }
            ],
            "stateMutability": "view",
            "type": "function"
        },
        {
            "inputs": [],
            "name": "GESTOR_PISTAS_ROLE",
            "outputs": [
                {
                    "internalType": "bytes32",
                    "name": "",
                    "type": "bytes32"
                }
            ],
            "stateMutability": "view",
            "type": "function"
        },
        {
            "inputs": [],
            "name": "PrecioXMinuto",
            "outputs": [
                {
                    "internalType": "uint256",
                    "name": "",
                    "type": "uint256"
                }
            ],
            "stateMutability": "view",
            "type": "function"
        },
        {
            "inputs": [],
            "name": "TiempoExtra",
            "outputs": [
                {
                    "internalType": "uint256",
                    "name": "",
                    "type": "uint256"
                }
            ],
            "stateMutability": "view",
            "type": "function"
        },
        {
            "inputs": [
                {
                    "internalType": "string",
                    "name": "_nombre",
                    "type": "string"
                }
            ],
            "name": "crearPista",
            "outputs": [
                {
                    "internalType": "uint256",
                    "name": "",
                    "type": "uint256"
                }
            ],
            "stateMutability": "nonpayable",
            "type": "function"
        },
        {
            "inputs": [],
            "name": "getAllPistas",
            "outputs": [
                {
                    "components": [
                        {
                            "internalType": "string",
                            "name": "nombre",
                            "type": "string"
                        },
                        {
                            "internalType": "uint256",
                            "name": "plazoEncendido",
                            "type": "uint256"
                        },
                        {
                            "internalType": "enum PistasDePadelGestion.Estado",
                            "name": "estado",
                            "type": "uint8"
                        }
                    ],
                    "internalType": "struct PistasDePadelGestion.Pista[]",
                    "name": "",
                    "type": "tuple[]"
                }
            ],
            "stateMutability": "view",
            "type": "function"
        },
        {
            "inputs": [],
            "name": "getGanancias",
            "outputs": [
                {
                    "internalType": "uint256",
                    "name": "",
                    "type": "uint256"
                }
            ],
            "stateMutability": "view",
            "type": "function"
        },
        {
            "inputs": [
                {
                    "internalType": "bytes32",
                    "name": "role",
                    "type": "bytes32"
                }
            ],
            "name": "getRoleAdmin",
            "outputs": [
                {
                    "internalType": "bytes32",
                    "name": "",
                    "type": "bytes32"
                }
            ],
            "stateMutability": "view",
            "type": "function"
        },
        {
            "inputs": [
                {
                    "internalType": "bytes32",
                    "name": "role",
                    "type": "bytes32"
                },
                {
                    "internalType": "uint256",
                    "name": "index",
                    "type": "uint256"
                }
            ],
            "name": "getRoleMember",
            "outputs": [
                {
                    "internalType": "address",
                    "name": "",
                    "type": "address"
                }
            ],
            "stateMutability": "view",
            "type": "function"
        },
        {
            "inputs": [
                {
                    "internalType": "bytes32",
                    "name": "role",
                    "type": "bytes32"
                }
            ],
            "name": "getRoleMemberCount",
            "outputs": [
                {
                    "internalType": "uint256",
                    "name": "",
                    "type": "uint256"
                }
            ],
            "stateMutability": "view",
            "type": "function"
        },
        {
            "inputs": [
                {
                    "internalType": "bytes32",
                    "name": "role",
                    "type": "bytes32"
                },
                {
                    "internalType": "address",
                    "name": "account",
                    "type": "address"
                }
            ],
            "name": "grantRole",
            "outputs": [],
            "stateMutability": "nonpayable",
            "type": "function"
        },
        {
            "inputs": [
                {
                    "internalType": "bytes32",
                    "name": "role",
                    "type": "bytes32"
                },
                {
                    "internalType": "address",
                    "name": "account",
                    "type": "address"
                }
            ],
            "name": "hasRole",
            "outputs": [
                {
                    "internalType": "bool",
                    "name": "",
                    "type": "bool"
                }
            ],
            "stateMutability": "view",
            "type": "function"
        },
        {
            "inputs": [
                {
                    "internalType": "uint256",
                    "name": "",
                    "type": "uint256"
                }
            ],
            "name": "pistas",
            "outputs": [
                {
                    "internalType": "string",
                    "name": "nombre",
                    "type": "string"
                },
                {
                    "internalType": "uint256",
                    "name": "plazoEncendido",
                    "type": "uint256"
                },
                {
                    "internalType": "enum PistasDePadelGestion.Estado",
                    "name": "estado",
                    "type": "uint8"
                }
            ],
            "stateMutability": "view",
            "type": "function"
        },
        {
            "inputs": [
                {
                    "internalType": "bytes32",
                    "name": "role",
                    "type": "bytes32"
                },
                {
                    "internalType": "address",
                    "name": "account",
                    "type": "address"
                }
            ],
            "name": "renounceRole",
            "outputs": [],
            "stateMutability": "nonpayable",
            "type": "function"
        },
        {
            "inputs": [
                {
                    "internalType": "uint256",
                    "name": "idPista",
                    "type": "uint256"
                },
                {
                    "internalType": "uint256",
                    "name": "minutos",
                    "type": "uint256"
                }
            ],
            "name": "reservar",
            "outputs": [],
            "stateMutability": "payable",
            "type": "function"
        },
        {
            "inputs": [
                {
                    "internalType": "uint256[]",
                    "name": "_idReset",
                    "type": "uint256[]"
                }
            ],
            "name": "resetearPlazos",
            "outputs": [],
            "stateMutability": "nonpayable",
            "type": "function"
        },
        {
            "inputs": [],
            "name": "retirarGanancias",
            "outputs": [
                {
                    "internalType": "bool",
                    "name": "",
                    "type": "bool"
                }
            ],
            "stateMutability": "payable",
            "type": "function"
        },
        {
            "inputs": [
                {
                    "internalType": "bytes32",
                    "name": "role",
                    "type": "bytes32"
                },
                {
                    "internalType": "address",
                    "name": "account",
                    "type": "address"
                }
            ],
            "name": "revokeRole",
            "outputs": [],
            "stateMutability": "nonpayable",
            "type": "function"
        },
        {
            "inputs": [
                {
                    "internalType": "uint256",
                    "name": "idPista",
                    "type": "uint256"
                }
            ],
            "name": "setPistaApagado",
            "outputs": [],
            "stateMutability": "nonpayable",
            "type": "function"
        },
        {
            "inputs": [
                {
                    "internalType": "uint256",
                    "name": "idPista",
                    "type": "uint256"
                }
            ],
            "name": "setPistaEncendido",
            "outputs": [],
            "stateMutability": "nonpayable",
            "type": "function"
        },
        {
            "inputs": [
                {
                    "internalType": "uint256",
                    "name": "idPista",
                    "type": "uint256"
                }
            ],
            "name": "setPistaFuncionamiento",
            "outputs": [],
            "stateMutability": "nonpayable",
            "type": "function"
        },
        {
            "inputs": [
                {
                    "internalType": "uint256",
                    "name": "_precio",
                    "type": "uint256"
                }
            ],
            "name": "setPrecioXMinuto",
            "outputs": [],
            "stateMutability": "nonpayable",
            "type": "function"
        },
        {
            "inputs": [
                {
                    "internalType": "uint256",
                    "name": "segundos",
                    "type": "uint256"
                }
            ],
            "name": "setTiempoExtra",
            "outputs": [],
            "stateMutability": "nonpayable",
            "type": "function"
        }
    ],
    "bytecode": "6080604052670de0b6b3a7640000600255603c60035560006004553480156200002757600080fd5b506200003560003362000067565b620000617f687797022fb88d524c9d386b0ec1c01a0799fff1f1f8403113dffa17f4bf6ab23362000067565b6200017b565b62000073828262000077565b5050565b6000828152602081815260409091206200009c91839062000c2e620000f0821b17901c565b156200007357620000ac62000110565b6001600160a01b0316816001600160a01b0316837f2f8788117e7eff1d82e926ec794901d17c78024a50270940304540a733656f0d60405160405180910390a45050565b600062000107836001600160a01b03841662000114565b90505b92915050565b3390565b600062000122838362000163565b6200015a575081546001818101845560008481526020808220909301849055845484825282860190935260409020919091556200010a565b5060006200010a565b60009081526001919091016020526040902054151590565b6118a2806200018b6000396000f3fe6080604052600436106101405760003560e01c8063a217fddf116100b6578063ca15c8731161006f578063ca15c87314610348578063cdab54d214610368578063d2b7727614610388578063d547741f1461039d578063da27d997146103bd578063e58a2a55146103ec57610140565b8063a217fddf146102b6578063a4ba0008146102cb578063a4c57a30146102eb578063a6efda4c14610300578063b212c51c14610320578063c4f03dfa1461032857610140565b80635e1fc5f8116101085780635e1fc5f8146101fd578063748a86141461021f578063772b2e86146102345780638862bace146102495780639010d07c1461025c57806391d148541461028957610140565b80630a5d518c1461014557806315a16c801461017b578063248a9ca31461019d5780632f2ff15d146101bd57806336568abe146101dd575b600080fd5b34801561015157600080fd5b50610165610160366004611133565b61040c565b60405161017291906112be565b60405180910390f35b34801561018757600080fd5b5061019b6101963660046110c0565b6104e2565b005b3480156101a957600080fd5b506101656101b83660046110c0565b6105bf565b3480156101c957600080fd5b5061019b6101d83660046110d8565b6105d4565b3480156101e957600080fd5b5061019b6101f83660046110d8565b61061c565b34801561020957600080fd5b5061021261065e565b604051610172919061122d565b34801561022b57600080fd5b5061016561077e565b34801561024057600080fd5b50610165610790565b61019b610257366004611112565b610796565b34801561026857600080fd5b5061027c610277366004611112565b610839565b6040516101729190611219565b34801561029557600080fd5b506102a96102a43660046110d8565b61085a565b60405161017291906112b3565b3480156102c257600080fd5b50610165610872565b3480156102d757600080fd5b5061019b6102e63660046110c0565b610877565b3480156102f757600080fd5b50610165610917565b34801561030c57600080fd5b5061019b61031b3660046110c0565b610941565b6102a9610967565b34801561033457600080fd5b5061019b610343366004611051565b6109c3565b34801561035457600080fd5b506101656103633660046110c0565b610a33565b34801561037457600080fd5b5061019b6103833660046110c0565b610a4a565b34801561039457600080fd5b50610165610ae8565b3480156103a957600080fd5b5061019b6103b83660046110d8565b610aee565b3480156103c957600080fd5b506103dd6103d83660046110c0565b610b28565b604051610172939291906112c7565b3480156103f857600080fd5b5061019b6104073660046110c0565b610be8565b600061042660008051602061184d8339815191523361085a565b61042f57600080fd5b610437610f93565b60408051606081018252848152600060208201529081016001905260018054808201825560009190915281518051929350909183917fb10e2d527612073b26eecdfd717e6a320cf44b4afac2b0732d9fcbe2b7fa0cf66003850201916104a4918391602090910190610fbe565b506020820151816001015560408201518160020160006101000a81548160ff021916908360028111156104d357fe5b02179055509195945050505050565b6104fa60008051602061184d8339815191523361085a565b61050357600080fd5b600154811061052d5760405162461bcd60e51b8152600401610524906116ec565b60405180910390fd5b60006001828154811061053c57fe5b60009182526020909120600260039092020181015460ff169081111561055e57fe5b141561057c5760405162461bcd60e51b81526004016105249061133c565b60006001828154811061058b57fe5b906000526020600020906003020160020160006101000a81548160ff021916908360028111156105b757fe5b021790555050565b60009081526020819052604090206002015490565b6000828152602081905260409020600201546105f2906102a4610c43565b61060e5760405162461bcd60e51b815260040161052490611373565b6106188282610c47565b5050565b610624610c43565b6001600160a01b0316816001600160a01b0316146106545760405162461bcd60e51b8152600401610524906117f1565b6106188282610cb0565b60606001805480602002602001604051908101604052809291908181526020016000905b828210156107745760008481526020908190206040805160038602909201805460026001821615610100026000190190911604601f810185900490940283016080908101909252606083018481529293909284929091849184018282801561072b5780601f106107005761010080835404028352916020019161072b565b820191906000526020600020905b81548152906001019060200180831161070e57829003601f168201915b50505091835250506001820154602082015260028083015460409092019160ff169081111561075657fe5b600281111561076157fe5b8152505081526020019060010190610682565b5050505090505b90565b60008051602061184d83398151915281565b60035481565b600154829081106107a657600080fd5b60018082815481106107b457fe5b60009182526020909120600260039092020181015460ff16908111156107d657fe5b146107f35760405162461bcd60e51b8152600401610524906115f6565b60035442603c8402010161080984348584610d19565b806001858154811061081757fe5b6000918252602090912060016003909202010155505060048054340190555050565b60008281526020819052604081206108519083610de1565b90505b92915050565b60008281526020819052604081206108519083610ded565b600081565b61088f60008051602061184d8339815191523361085a565b61089857600080fd5b60015481106108b95760405162461bcd60e51b8152600401610524906116ec565b6002600182815481106108c857fe5b60009182526020909120600260039092020181015460ff16908111156108ea57fe5b14156109085760405162461bcd60e51b815260040161052490611500565b60026001828154811061058b57fe5b600061093160008051602061184d8339815191523361085a565b61093a57600080fd5b5060045490565b61095960008051602061184d8339815191523361085a565b61096257600080fd5b600355565b6000610973813361085a565b61098f5760405162461bcd60e51b81526004016105249061173a565b600454604051339180156108fc02916000818181858888f193505050506109b85750600061077b565b506000600455600190565b6109db60008051602061184d8339815191523361085a565b6109e457600080fd5b60005b81811015610a2e57600060018484848181106109ff57fe5b9050602002013581548110610a1057fe5b600091825260209091206001600390920201810191909155016109e7565b505050565b600081815260208190526040812061085490610e02565b610a6260008051602061184d8339815191523361085a565b610a6b57600080fd5b6001548110610a8c5760405162461bcd60e51b8152600401610524906116ec565b6001808281548110610a9a57fe5b60009182526020909120600260039092020181015460ff1690811115610abc57fe5b1415610ada5760405162461bcd60e51b81526004016105249061146c565b600180828154811061058b57fe5b60025481565b600082815260208190526040902060020154610b0c906102a4610c43565b6106545760405162461bcd60e51b8152600401610524906114b0565b60018181548110610b3557fe5b60009182526020918290206003919091020180546040805160026001841615610100026000190190931692909204601f810185900485028301850190915280825291935091839190830182828015610bce5780601f10610ba357610100808354040283529160200191610bce565b820191906000526020600020905b815481529060010190602001808311610bb157829003601f168201915b50505050600183015460029093015491929160ff16905083565b610c0060008051602061184d8339815191523361085a565b610c0957600080fd5b60008111610c295760405162461bcd60e51b8152600401610524906116b5565b600255565b6000610851836001600160a01b038416610e0d565b3390565b6000828152602081905260409020610c5f9082610c2e565b1561061857610c6c610c43565b6001600160a01b0316816001600160a01b0316837f2f8788117e7eff1d82e926ec794901d17c78024a50270940304540a733656f0d60405160405180910390a45050565b6000828152602081905260409020610cc89082610e57565b1561061857610cd5610c43565b6001600160a01b0316816001600160a01b0316837ff6391f5c32d9c69d2a47ea670b442974b53935d1edc7fd64eb21e047a839171b60405160405180910390a45050565b60008311610d395760405162461bcd60e51b8152600401610524906117a3565b60045483810111610d5c5760405162461bcd60e51b815260040161052490611537565b60025482028314610d7f5760405162461bcd60e51b815260040161052490611667565b4260018581548110610d8d57fe5b90600052602060002090600302016001015410610dbc5760405162461bcd60e51b815260040161052490611435565b428111610ddb5760405162461bcd60e51b8152600401610524906113c2565b50505050565b60006108518383610e6c565b6000610851836001600160a01b038416610eb1565b600061085482610ec9565b6000610e198383610eb1565b610e4f57508154600181810184556000848152602080822090930184905584548482528286019093526040902091909155610854565b506000610854565b6000610851836001600160a01b038416610ecd565b81546000908210610e8f5760405162461bcd60e51b8152600401610524906112fa565b826000018281548110610e9e57fe5b9060005260206000200154905092915050565b60009081526001919091016020526040902054151590565b5490565b60008181526001830160205260408120548015610f895783546000198083019190810190600090879083908110610f0057fe5b9060005260206000200154905080876000018481548110610f1d57fe5b600091825260208083209091019290925582815260018981019092526040902090840190558654879080610f4d57fe5b60019003818190600052602060002001600090559055866001016000878152602001908152602001600020600090556001945050505050610854565b6000915050610854565b6040518060600160405280606081526020016000815260200160006002811115610fb957fe5b905290565b828054600181600116156101000203166002900490600052602060002090601f016020900481019282601f10610fff57805160ff191683800117855561102c565b8280016001018555821561102c579182015b8281111561102c578251825591602001919060010190611011565b5061103892915061103c565b5090565b5b80821115611038576000815560010161103d565b60008060208385031215611063578182fd5b823567ffffffffffffffff8082111561107a578384fd5b818501915085601f83011261108d578384fd5b81358181111561109b578485fd5b86602080830285010111156110ae578485fd5b60209290920196919550909350505050565b6000602082840312156110d1578081fd5b5035919050565b600080604083850312156110ea578182fd5b8235915060208301356001600160a01b0381168114611107578182fd5b809150509250929050565b60008060408385031215611124578182fd5b50508035926020909101359150565b600060208284031215611144578081fd5b813567ffffffffffffffff8082111561115b578283fd5b818401915084601f83011261116e578283fd5b81358181111561117c578384fd5b604051601f8201601f19168101602001838111828210171561119c578586fd5b6040528181528382016020018710156111b3578485fd5b6111c4826020830160208701611840565b9695505050505050565b60008151808452815b818110156111f3576020818501810151868301820152016111d7565b818111156112045782602083870101525b50601f01601f19169290920160200192915050565b6001600160a01b0391909116815260200190565b60208082528251828201819052600091906040908185019080840286018301878501865b838110156112a557603f19898403018552815160608151818652611277828701826111ce565b838b0151878c015292890151929150506003821061129157fe5b938701529386019390860190600101611251565b509098975050505050505050565b901515815260200190565b90815260200190565b6000606082526112da60608301866111ce565b9050836020830152600383106112ec57fe5b826040830152949350505050565b60208082526022908201527f456e756d657261626c655365743a20696e646578206f7574206f6620626f756e604082015261647360f01b606082015260800190565b6020808252601a908201527f4c6120706973746120796120657374c3a120617061676164612e000000000000604082015260600190565b6020808252602f908201527f416363657373436f6e74726f6c3a2073656e646572206d75737420626520616e60408201526e0818591b5a5b881d1bc819dc985b9d608a1b606082015260800190565b6020808252604d908201527f4572726f72206465206163617272656f20646520626974732c20656c206e756560408201527f766f20706c617a6f206e6f20657374c3a12063616c63756c616e646f7365206360608201526c37b93932b1ba30b6b2b73a329760991b608082015260a00190565b6020808252601d908201527f4c6120706973746120796120657374c3a120736f6c696369746164612e000000604082015260600190565b60208082526024908201527f4c6120706973746120796120657374c3a120656e2066756e63696f6e616d6965604082015263373a379760e11b606082015260800190565b60208082526030908201527f416363657373436f6e74726f6c3a2073656e646572206d75737420626520616e60408201526f2061646d696e20746f207265766f6b6560801b606082015260800190565b6020808252601c908201527f4c6120706973746120796120657374c3a120656e63656e646964612e00000000604082015260600190565b6020808252608d908201527f4572726f72206465206163617272656f20646520626974733a204573206e656360408201527f65736172696f2072657469726172206c612063616e7469646164206163756d7560608201527f6c6164612064652067616e616e636961732064656c20636f6e747261746f206160808201527f6e74657320646520706f64657220636f6e74696e7561722068616369656e646f60a08201526c1037b832b930b1b4b7b732b99760991b60c082015260e00190565b6020808252604b908201527f4c61207069737461206e6f20736520656e6375656e74726120646973706f6e6960408201527f626c65207061726120656c2075736f20616c20636c69656e746520656e20657360608201526a3a329036b7b6b2b73a379760a91b608082015260a00190565b6020808252602e908201527f4e6f20736520686120656e766961646f206c612063616e74696461642064652060408201526d24a7aa2c1030b232b1bab0b2309760911b606082015260800190565b6020808252601e908201527f456c2070726563696f206573206d656e6f72206f20696775616c206120300000604082015260600190565b6020808252602e908201527f4e6f20657869737465206964656e746966696361646f72206465206c6120706960408201526d39ba30903932b1b630b6b0b2309760911b606082015260800190565b60208082526043908201527f456c207573756172696f20717565206c6c616d612061206c612066756e6369c360408201527fb36e206e6f20706f736565206c6f73207065726d69736f73206e656365736172606082015262696f7360e81b608082015260a00190565b6020808252602e908201527f4e6f20736520686120696e74726f64756369646f206e696e67756e612063616e60408201526d3a34b230b21032329024a7aa2c1760911b606082015260800190565b6020808252602f908201527f416363657373436f6e74726f6c3a2063616e206f6e6c792072656e6f756e636560408201526e103937b632b9903337b91039b2b63360891b606082015260800190565b8281833750600091015256fe687797022fb88d524c9d386b0ec1c01a0799fff1f1f8403113dffa17f4bf6ab2a2646970667358221220f3f0d4a563ceb47b8713e3bc365a898b81aba42275d911477dfbe5d19428b57564736f6c634300060c0033",
    "sourcePath": "/home/lince098/Escritorio/TFG/rpi-script/Contracts/PistasDePadelCliente.sol",
    "compiler": {
        "name": "solc",
        "version": "0.6.12+commit.27d51765"
    },
    "functionHashes": {
        "DEFAULT_ADMIN_ROLE()": "a217fddf",
        "GESTOR_PISTAS_ROLE()": "748a8614",
        "PrecioXMinuto()": "d2b77276",
        "TiempoExtra()": "772b2e86",
        "crearPista(string)": "0a5d518c",
        "getAllPistas()": "5e1fc5f8",
        "getGanancias()": "a4c57a30",
        "getRoleAdmin(bytes32)": "248a9ca3",
        "getRoleMember(bytes32,uint256)": "9010d07c",
        "getRoleMemberCount(bytes32)": "ca15c873",
        "grantRole(bytes32,address)": "2f2ff15d",
        "hasRole(bytes32,address)": "91d14854",
        "pistas(uint256)": "da27d997",
        "renounceRole(bytes32,address)": "36568abe",
        "reservar(uint256,uint256)": "8862bace",
        "resetearPlazos(uint256[])": "c4f03dfa",
        "retirarGanancias()": "b212c51c",
        "revokeRole(bytes32,address)": "d547741f",
        "setPistaApagado(uint256)": "15a16c80",
        "setPistaEncendido(uint256)": "a4ba0008",
        "setPistaFuncionamiento(uint256)": "cdab54d2",
        "setPrecioXMinuto(uint256)": "e58a2a55",
        "setTiempoExtra(uint256)": "a6efda4c"
    },
    "gasEstimates": {
        "creation": {
            "codeDepositCost": "1261200",
            "executionCost": "infinite",
            "totalCost": "infinite"
        },
        "external": {
            "DEFAULT_ADMIN_ROLE()": "251",
            "GESTOR_PISTAS_ROLE()": "infinite",
            "PrecioXMinuto()": "1094",
            "TiempoExtra()": "1095",
            "crearPista(string)": "infinite",
            "getAllPistas()": "infinite",
            "getGanancias()": "infinite",
            "getRoleAdmin(bytes32)": "1248",
            "getRoleMember(bytes32,uint256)": "infinite",
            "getRoleMemberCount(bytes32)": "infinite",
            "grantRole(bytes32,address)": "infinite",
            "hasRole(bytes32,address)": "infinite",
            "pistas(uint256)": "infinite",
            "renounceRole(bytes32,address)": "infinite",
            "reservar(uint256,uint256)": "48925",
            "resetearPlazos(uint256[])": "infinite",
            "retirarGanancias()": "infinite",
            "revokeRole(bytes32,address)": "infinite",
            "setPistaApagado(uint256)": "infinite",
            "setPistaEncendido(uint256)": "infinite",
            "setPistaFuncionamiento(uint256)": "infinite",
            "setPrecioXMinuto(uint256)": "infinite",
            "setTiempoExtra(uint256)": "infinite"
        },
        "internal": {
            "precondicionesReserva(uint256,uint256,uint256,uint256)": "infinite"
        }
    }
}